{
  "_format": "hh-sol-artifact-1",
  "contractName": "Creator",
  "sourceName": "contracts/Creator.sol",
  "abi": [
    {
      "inputs": [
        {
          "internalType": "address",
          "name": "_creator",
          "type": "address"
        }
      ],
      "stateMutability": "nonpayable",
      "type": "constructor"
    },
    {
      "anonymous": false,
      "inputs": [
        {
          "indexed": true,
          "internalType": "address",
          "name": "account",
          "type": "address"
        },
        {
          "indexed": true,
          "internalType": "address",
          "name": "operator",
          "type": "address"
        },
        {
          "indexed": false,
          "internalType": "bool",
          "name": "approved",
          "type": "bool"
        }
      ],
      "name": "ApprovalForAll",
      "type": "event"
    },
    {
      "anonymous": false,
      "inputs": [
        {
          "indexed": true,
          "internalType": "address",
          "name": "minter",
          "type": "address"
        },
        {
          "indexed": true,
          "internalType": "uint256",
          "name": "postID",
          "type": "uint256"
        },
        {
          "indexed": false,
          "internalType": "uint256",
          "name": "nTokens",
          "type": "uint256"
        }
      ],
      "name": "Post",
      "type": "event"
    },
    {
      "anonymous": false,
      "inputs": [
        {
          "indexed": true,
          "internalType": "address",
          "name": "operator",
          "type": "address"
        },
        {
          "indexed": true,
          "internalType": "address",
          "name": "from",
          "type": "address"
        },
        {
          "indexed": true,
          "internalType": "address",
          "name": "to",
          "type": "address"
        },
        {
          "indexed": false,
          "internalType": "uint256[]",
          "name": "ids",
          "type": "uint256[]"
        },
        {
          "indexed": false,
          "internalType": "uint256[]",
          "name": "values",
          "type": "uint256[]"
        }
      ],
      "name": "TransferBatch",
      "type": "event"
    },
    {
      "anonymous": false,
      "inputs": [
        {
          "indexed": true,
          "internalType": "address",
          "name": "operator",
          "type": "address"
        },
        {
          "indexed": true,
          "internalType": "address",
          "name": "from",
          "type": "address"
        },
        {
          "indexed": true,
          "internalType": "address",
          "name": "to",
          "type": "address"
        },
        {
          "indexed": false,
          "internalType": "uint256",
          "name": "id",
          "type": "uint256"
        },
        {
          "indexed": false,
          "internalType": "uint256",
          "name": "value",
          "type": "uint256"
        }
      ],
      "name": "TransferSingle",
      "type": "event"
    },
    {
      "anonymous": false,
      "inputs": [
        {
          "indexed": false,
          "internalType": "string",
          "name": "value",
          "type": "string"
        },
        {
          "indexed": true,
          "internalType": "uint256",
          "name": "id",
          "type": "uint256"
        }
      ],
      "name": "URI",
      "type": "event"
    },
    {
      "inputs": [
        {
          "internalType": "address",
          "name": "account",
          "type": "address"
        },
        {
          "internalType": "uint256",
          "name": "id",
          "type": "uint256"
        }
      ],
      "name": "balanceOf",
      "outputs": [
        {
          "internalType": "uint256",
          "name": "",
          "type": "uint256"
        }
      ],
      "stateMutability": "view",
      "type": "function"
    },
    {
      "inputs": [
        {
          "internalType": "address[]",
          "name": "accounts",
          "type": "address[]"
        },
        {
          "internalType": "uint256[]",
          "name": "ids",
          "type": "uint256[]"
        }
      ],
      "name": "balanceOfBatch",
      "outputs": [
        {
          "internalType": "uint256[]",
          "name": "",
          "type": "uint256[]"
        }
      ],
      "stateMutability": "view",
      "type": "function"
    },
    {
      "inputs": [
        {
          "internalType": "uint256",
          "name": "nTokens",
          "type": "uint256"
        },
        {
          "internalType": "address",
          "name": "minter",
          "type": "address"
        }
      ],
      "name": "createPost",
      "outputs": [],
      "stateMutability": "nonpayable",
      "type": "function"
    },
    {
      "inputs": [],
      "name": "creator",
      "outputs": [
        {
          "internalType": "address",
          "name": "",
          "type": "address"
        }
      ],
      "stateMutability": "view",
      "type": "function"
    },
    {
      "inputs": [
        {
          "internalType": "address",
          "name": "account",
          "type": "address"
        },
        {
          "internalType": "address",
          "name": "operator",
          "type": "address"
        }
      ],
      "name": "isApprovedForAll",
      "outputs": [
        {
          "internalType": "bool",
          "name": "",
          "type": "bool"
        }
      ],
      "stateMutability": "view",
      "type": "function"
    },
    {
      "inputs": [],
      "name": "nPosts",
      "outputs": [
        {
          "internalType": "uint256",
          "name": "",
          "type": "uint256"
        }
      ],
      "stateMutability": "view",
      "type": "function"
    },
    {
      "inputs": [
        {
          "internalType": "address",
          "name": "from",
          "type": "address"
        },
        {
          "internalType": "address",
          "name": "to",
          "type": "address"
        },
        {
          "internalType": "uint256[]",
          "name": "ids",
          "type": "uint256[]"
        },
        {
          "internalType": "uint256[]",
          "name": "amounts",
          "type": "uint256[]"
        },
        {
          "internalType": "bytes",
          "name": "data",
          "type": "bytes"
        }
      ],
      "name": "safeBatchTransferFrom",
      "outputs": [],
      "stateMutability": "nonpayable",
      "type": "function"
    },
    {
      "inputs": [
        {
          "internalType": "address",
          "name": "from",
          "type": "address"
        },
        {
          "internalType": "address",
          "name": "to",
          "type": "address"
        },
        {
          "internalType": "uint256",
          "name": "id",
          "type": "uint256"
        },
        {
          "internalType": "uint256",
          "name": "amount",
          "type": "uint256"
        },
        {
          "internalType": "bytes",
          "name": "data",
          "type": "bytes"
        }
      ],
      "name": "safeTransferFrom",
      "outputs": [],
      "stateMutability": "nonpayable",
      "type": "function"
    },
    {
      "inputs": [
        {
          "internalType": "address",
          "name": "operator",
          "type": "address"
        },
        {
          "internalType": "bool",
          "name": "approved",
          "type": "bool"
        }
      ],
      "name": "setApprovalForAll",
      "outputs": [],
      "stateMutability": "nonpayable",
      "type": "function"
    },
    {
      "inputs": [
        {
          "internalType": "bytes4",
          "name": "interfaceId",
          "type": "bytes4"
        }
      ],
      "name": "supportsInterface",
      "outputs": [
        {
          "internalType": "bool",
          "name": "",
          "type": "bool"
        }
      ],
      "stateMutability": "view",
      "type": "function"
    },
    {
      "inputs": [
        {
          "internalType": "uint256",
          "name": "",
          "type": "uint256"
        }
      ],
      "name": "uri",
      "outputs": [
        {
          "internalType": "string",
          "name": "",
          "type": "string"
        }
      ],
      "stateMutability": "view",
      "type": "function"
    }
  ],
  "bytecode": "0x608060405260006004553480156200001657600080fd5b5060405162002cfb38038062002cfb83398181016040528101906200003c919062000193565b6040518060600160405280602c815260200162002ccf602c91396200006781620000b060201b60201c565b5080600360006101000a81548173ffffffffffffffffffffffffffffffffffffffff021916908373ffffffffffffffffffffffffffffffffffffffff1602179055505062000272565b8060029080519060200190620000c8929190620000cc565b5050565b828054620000da90620001f3565b90600052602060002090601f016020900481019282620000fe57600085556200014a565b82601f106200011957805160ff19168380011785556200014a565b828001600101855582156200014a579182015b82811115620001495782518255916020019190600101906200012c565b5b5090506200015991906200015d565b5090565b5b80821115620001785760008160009055506001016200015e565b5090565b6000815190506200018d8162000258565b92915050565b600060208284031215620001a657600080fd5b6000620001b6848285016200017c565b91505092915050565b6000620001cc82620001d3565b9050919050565b600073ffffffffffffffffffffffffffffffffffffffff82169050919050565b600060028204905060018216806200020c57607f821691505b6020821081141562000223576200022262000229565b5b50919050565b7f4e487b7100000000000000000000000000000000000000000000000000000000600052602260045260246000fd5b6200026381620001bf565b81146200026f57600080fd5b50565b612a4d80620002826000396000f3fe608060405234801561001057600080fd5b50600436106100a85760003560e01c80632eb2c2d6116100715780632eb2c2d6146101795780634e1273f414610195578063a22cb465146101c5578063e985e9c5146101e1578063f242432a14610211578063f807ccef1461022d576100a8565b8062fdd58e146100ad57806301ffc9a7146100dd57806302d05d3f1461010d5780630e89341c1461012b5780631fff8b391461015b575b600080fd5b6100c760048036038101906100c29190611b01565b610249565b6040516100d491906121d8565b60405180910390f35b6100f760048036038101906100f29190611ba9565b610312565b604051610104919061203b565b60405180910390f35b6101156103f4565b6040516101229190611f05565b60405180910390f35b61014560048036038101906101409190611bfb565b61041a565b6040516101529190612056565b60405180910390f35b6101636104ae565b60405161017091906121d8565b60405180910390f35b610193600480360381019061018e9190611977565b6104b4565b005b6101af60048036038101906101aa9190611b3d565b610555565b6040516101bc9190611fe2565b60405180910390f35b6101df60048036038101906101da9190611ac5565b610706565b005b6101fb60048036038101906101f6919061193b565b61071c565b604051610208919061203b565b60405180910390f35b61022b60048036038101906102269190611a36565b6107b0565b005b61024760048036038101906102429190611c24565b610851565b005b60008073ffffffffffffffffffffffffffffffffffffffff168373ffffffffffffffffffffffffffffffffffffffff1614156102ba576040517f08c379a00000000000000000000000000000000000000000000000000000000081526004016102b1906120b8565b60405180910390fd5b60008083815260200190815260200160002060008473ffffffffffffffffffffffffffffffffffffffff1673ffffffffffffffffffffffffffffffffffffffff16815260200190815260200160002054905092915050565b60007fd9b67a26000000000000000000000000000000000000000000000000000000007bffffffffffffffffffffffffffffffffffffffffffffffffffffffff1916827bffffffffffffffffffffffffffffffffffffffffffffffffffffffff191614806103dd57507f0e89341c000000000000000000000000000000000000000000000000000000007bffffffffffffffffffffffffffffffffffffffffffffffffffffffff1916827bffffffffffffffffffffffffffffffffffffffffffffffffffffffff1916145b806103ed57506103ec826108dd565b5b9050919050565b600360009054906101000a900473ffffffffffffffffffffffffffffffffffffffff1681565b60606002805461042990612447565b80601f016020809104026020016040519081016040528092919081815260200182805461045590612447565b80156104a25780601f10610477576101008083540402835291602001916104a2565b820191906000526020600020905b81548152906001019060200180831161048557829003601f168201915b50505050509050919050565b60045481565b6104bc610947565b73ffffffffffffffffffffffffffffffffffffffff168573ffffffffffffffffffffffffffffffffffffffff1614806105025750610501856104fc610947565b61071c565b5b610541576040517f08c379a000000000000000000000000000000000000000000000000000000000815260040161053890612118565b60405180910390fd5b61054e858585858561094f565b5050505050565b6060815183511461059b576040517f08c379a000000000000000000000000000000000000000000000000000000000815260040161059290612178565b60405180910390fd5b6000835167ffffffffffffffff8111156105de577f4e487b7100000000000000000000000000000000000000000000000000000000600052604160045260246000fd5b60405190808252806020026020018201604052801561060c5781602001602082028036833780820191505090505b50905060005b84518110156106fb576106a5858281518110610657577f4e487b7100000000000000000000000000000000000000000000000000000000600052603260045260246000fd5b6020026020010151858381518110610698577f4e487b7100000000000000000000000000000000000000000000000000000000600052603260045260246000fd5b6020026020010151610249565b8282815181106106de577f4e487b7100000000000000000000000000000000000000000000000000000000600052603260045260246000fd5b602002602001018181525050806106f4906124aa565b9050610612565b508091505092915050565b610718610711610947565b8383610cbd565b5050565b6000600160008473ffffffffffffffffffffffffffffffffffffffff1673ffffffffffffffffffffffffffffffffffffffff16815260200190815260200160002060008373ffffffffffffffffffffffffffffffffffffffff1673ffffffffffffffffffffffffffffffffffffffff16815260200190815260200160002060009054906101000a900460ff16905092915050565b6107b8610947565b73ffffffffffffffffffffffffffffffffffffffff168573ffffffffffffffffffffffffffffffffffffffff1614806107fe57506107fd856107f8610947565b61071c565b5b61083d576040517f08c379a0000000000000000000000000000000000000000000000000000000008152600401610834906120d8565b60405180910390fd5b61084a8585858585610e2a565b5050505050565b61086e8160045484604051806020016040528060008152506110c6565b6004548173ffffffffffffffffffffffffffffffffffffffff167f4999bb9c9fce059f2cd0aa1faeec2e4d06fde0c1d23543593c70609714ff8886846040516108b791906121d8565b60405180910390a36001600460008282546108d2919061233b565b925050819055505050565b60007f01ffc9a7000000000000000000000000000000000000000000000000000000007bffffffffffffffffffffffffffffffffffffffffffffffffffffffff1916827bffffffffffffffffffffffffffffffffffffffffffffffffffffffff1916149050919050565b600033905090565b8151835114610993576040517f08c379a000000000000000000000000000000000000000000000000000000000815260040161098a90612198565b60405180910390fd5b600073ffffffffffffffffffffffffffffffffffffffff168473ffffffffffffffffffffffffffffffffffffffff161415610a03576040517f08c379a00000000000000000000000000000000000000000000000000000000081526004016109fa906120f8565b60405180910390fd5b6000610a0d610947565b9050610a1d818787878787611277565b60005b8451811015610c1a576000858281518110610a64577f4e487b7100000000000000000000000000000000000000000000000000000000600052603260045260246000fd5b602002602001015190506000858381518110610aa9577f4e487b7100000000000000000000000000000000000000000000000000000000600052603260045260246000fd5b60200260200101519050600080600084815260200190815260200160002060008b73ffffffffffffffffffffffffffffffffffffffff1673ffffffffffffffffffffffffffffffffffffffff16815260200190815260200160002054905081811015610b4a576040517f08c379a0000000000000000000000000000000000000000000000000000000008152600401610b4190612138565b60405180910390fd5b81810360008085815260200190815260200160002060008c73ffffffffffffffffffffffffffffffffffffffff1673ffffffffffffffffffffffffffffffffffffffff168152602001908152602001600020819055508160008085815260200190815260200160002060008b73ffffffffffffffffffffffffffffffffffffffff1673ffffffffffffffffffffffffffffffffffffffff1681526020019081526020016000206000828254610bff919061233b565b9250508190555050505080610c13906124aa565b9050610a20565b508473ffffffffffffffffffffffffffffffffffffffff168673ffffffffffffffffffffffffffffffffffffffff168273ffffffffffffffffffffffffffffffffffffffff167f4a39dc06d4c0dbc64b70af90fd698a233a518aa5d07e595d983b8c0526c8f7fb8787604051610c91929190612004565b60405180910390a4610ca781878787878761127f565b610cb5818787878787611287565b505050505050565b8173ffffffffffffffffffffffffffffffffffffffff168373ffffffffffffffffffffffffffffffffffffffff161415610d2c576040517f08c379a0000000000000000000000000000000000000000000000000000000008152600401610d2390612158565b60405180910390fd5b80600160008573ffffffffffffffffffffffffffffffffffffffff1673ffffffffffffffffffffffffffffffffffffffff16815260200190815260200160002060008473ffffffffffffffffffffffffffffffffffffffff1673ffffffffffffffffffffffffffffffffffffffff16815260200190815260200160002060006101000a81548160ff0219169083151502179055508173ffffffffffffffffffffffffffffffffffffffff168373ffffffffffffffffffffffffffffffffffffffff167f17307eab39ab6107e8899845ad3d59bd9653f200f220920489ca2b5937696c3183604051610e1d919061203b565b60405180910390a3505050565b600073ffffffffffffffffffffffffffffffffffffffff168473ffffffffffffffffffffffffffffffffffffffff161415610e9a576040517f08c379a0000000000000000000000000000000000000000000000000000000008152600401610e91906120f8565b60405180910390fd5b6000610ea4610947565b90506000610eb18561146e565b90506000610ebe8561146e565b9050610ece838989858589611277565b600080600088815260200190815260200160002060008a73ffffffffffffffffffffffffffffffffffffffff1673ffffffffffffffffffffffffffffffffffffffff16815260200190815260200160002054905085811015610f65576040517f08c379a0000000000000000000000000000000000000000000000000000000008152600401610f5c90612138565b60405180910390fd5b85810360008089815260200190815260200160002060008b73ffffffffffffffffffffffffffffffffffffffff1673ffffffffffffffffffffffffffffffffffffffff168152602001908152602001600020819055508560008089815260200190815260200160002060008a73ffffffffffffffffffffffffffffffffffffffff1673ffffffffffffffffffffffffffffffffffffffff168152602001908152602001600020600082825461101a919061233b565b925050819055508773ffffffffffffffffffffffffffffffffffffffff168973ffffffffffffffffffffffffffffffffffffffff168573ffffffffffffffffffffffffffffffffffffffff167fc3d58168c5ae7397731d063d5bbf3d657854427343f4c083240f7aacaa2d0f628a8a6040516110979291906121f3565b60405180910390a46110ad848a8a86868a61127f565b6110bb848a8a8a8a8a611534565b505050505050505050565b600073ffffffffffffffffffffffffffffffffffffffff168473ffffffffffffffffffffffffffffffffffffffff161415611136576040517f08c379a000000000000000000000000000000000000000000000000000000000815260040161112d906121b8565b60405180910390fd5b6000611140610947565b9050600061114d8561146e565b9050600061115a8561146e565b905061116b83600089858589611277565b8460008088815260200190815260200160002060008973ffffffffffffffffffffffffffffffffffffffff1673ffffffffffffffffffffffffffffffffffffffff16815260200190815260200160002060008282546111ca919061233b565b925050819055508673ffffffffffffffffffffffffffffffffffffffff16600073ffffffffffffffffffffffffffffffffffffffff168473ffffffffffffffffffffffffffffffffffffffff167fc3d58168c5ae7397731d063d5bbf3d657854427343f4c083240f7aacaa2d0f6289896040516112489291906121f3565b60405180910390a461125f8360008985858961127f565b61126e83600089898989611534565b50505050505050565b505050505050565b505050505050565b6112a68473ffffffffffffffffffffffffffffffffffffffff1661171b565b15611466578373ffffffffffffffffffffffffffffffffffffffff1663bc197c8187878686866040518663ffffffff1660e01b81526004016112ec959493929190611f20565b602060405180830381600087803b15801561130657600080fd5b505af192505050801561133757506040513d601f19601f820116820180604052508101906113349190611bd2565b60015b6113dd57611343612580565b806308c379a014156113a05750611358612925565b8061136357506113a2565b806040517f08c379a00000000000000000000000000000000000000000000000000000000081526004016113979190612056565b60405180910390fd5b505b6040517f08c379a00000000000000000000000000000000000000000000000000000000081526004016113d490612078565b60405180910390fd5b63bc197c8160e01b7bffffffffffffffffffffffffffffffffffffffffffffffffffffffff1916817bffffffffffffffffffffffffffffffffffffffffffffffffffffffff191614611464576040517f08c379a000000000000000000000000000000000000000000000000000000000815260040161145b90612098565b60405180910390fd5b505b505050505050565b60606000600167ffffffffffffffff8111156114b3577f4e487b7100000000000000000000000000000000000000000000000000000000600052604160045260246000fd5b6040519080825280602002602001820160405280156114e15781602001602082028036833780820191505090505b509050828160008151811061151f577f4e487b7100000000000000000000000000000000000000000000000000000000600052603260045260246000fd5b60200260200101818152505080915050919050565b6115538473ffffffffffffffffffffffffffffffffffffffff1661171b565b15611713578373ffffffffffffffffffffffffffffffffffffffff1663f23a6e6187878686866040518663ffffffff1660e01b8152600401611599959493929190611f88565b602060405180830381600087803b1580156115b357600080fd5b505af19250505080156115e457506040513d601f19601f820116820180604052508101906115e19190611bd2565b60015b61168a576115f0612580565b806308c379a0141561164d5750611605612925565b80611610575061164f565b806040517f08c379a00000000000000000000000000000000000000000000000000000000081526004016116449190612056565b60405180910390fd5b505b6040517f08c379a000000000000000000000000000000000000000000000000000000000815260040161168190612078565b60405180910390fd5b63f23a6e6160e01b7bffffffffffffffffffffffffffffffffffffffffffffffffffffffff1916817bffffffffffffffffffffffffffffffffffffffffffffffffffffffff191614611711576040517f08c379a000000000000000000000000000000000000000000000000000000000815260040161170890612098565b60405180910390fd5b505b505050505050565b6000808273ffffffffffffffffffffffffffffffffffffffff163b119050919050565b600061175161174c84612241565b61221c565b9050808382526020820190508285602086028201111561177057600080fd5b60005b858110156117a057816117868882611854565b845260208401935060208301925050600181019050611773565b5050509392505050565b60006117bd6117b88461226d565b61221c565b905080838252602082019050828560208602820111156117dc57600080fd5b60005b8581101561180c57816117f28882611926565b8452602084019350602083019250506001810190506117df565b5050509392505050565b600061182961182484612299565b61221c565b90508281526020810184848401111561184157600080fd5b61184c848285612405565b509392505050565b600081359050611863816129bb565b92915050565b600082601f83011261187a57600080fd5b813561188a84826020860161173e565b91505092915050565b600082601f8301126118a457600080fd5b81356118b48482602086016117aa565b91505092915050565b6000813590506118cc816129d2565b92915050565b6000813590506118e1816129e9565b92915050565b6000815190506118f6816129e9565b92915050565b600082601f83011261190d57600080fd5b813561191d848260208601611816565b91505092915050565b60008135905061193581612a00565b92915050565b6000806040838503121561194e57600080fd5b600061195c85828601611854565b925050602061196d85828601611854565b9150509250929050565b600080600080600060a0868803121561198f57600080fd5b600061199d88828901611854565b95505060206119ae88828901611854565b945050604086013567ffffffffffffffff8111156119cb57600080fd5b6119d788828901611893565b935050606086013567ffffffffffffffff8111156119f457600080fd5b611a0088828901611893565b925050608086013567ffffffffffffffff811115611a1d57600080fd5b611a29888289016118fc565b9150509295509295909350565b600080600080600060a08688031215611a4e57600080fd5b6000611a5c88828901611854565b9550506020611a6d88828901611854565b9450506040611a7e88828901611926565b9350506060611a8f88828901611926565b925050608086013567ffffffffffffffff811115611aac57600080fd5b611ab8888289016118fc565b9150509295509295909350565b60008060408385031215611ad857600080fd5b6000611ae685828601611854565b9250506020611af7858286016118bd565b9150509250929050565b60008060408385031215611b1457600080fd5b6000611b2285828601611854565b9250506020611b3385828601611926565b9150509250929050565b60008060408385031215611b5057600080fd5b600083013567ffffffffffffffff811115611b6a57600080fd5b611b7685828601611869565b925050602083013567ffffffffffffffff811115611b9357600080fd5b611b9f85828601611893565b9150509250929050565b600060208284031215611bbb57600080fd5b6000611bc9848285016118d2565b91505092915050565b600060208284031215611be457600080fd5b6000611bf2848285016118e7565b91505092915050565b600060208284031215611c0d57600080fd5b6000611c1b84828501611926565b91505092915050565b60008060408385031215611c3757600080fd5b6000611c4585828601611926565b9250506020611c5685828601611854565b9150509250929050565b6000611c6c8383611ee7565b60208301905092915050565b611c8181612391565b82525050565b6000611c92826122da565b611c9c8185612308565b9350611ca7836122ca565b8060005b83811015611cd8578151611cbf8882611c60565b9750611cca836122fb565b925050600181019050611cab565b5085935050505092915050565b611cee816123a3565b82525050565b6000611cff826122e5565b611d098185612319565b9350611d19818560208601612414565b611d22816125a2565b840191505092915050565b6000611d38826122f0565b611d42818561232a565b9350611d52818560208601612414565b611d5b816125a2565b840191505092915050565b6000611d7360348361232a565b9150611d7e826125c0565b604082019050919050565b6000611d9660288361232a565b9150611da18261260f565b604082019050919050565b6000611db9602b8361232a565b9150611dc48261265e565b604082019050919050565b6000611ddc60298361232a565b9150611de7826126ad565b604082019050919050565b6000611dff60258361232a565b9150611e0a826126fc565b604082019050919050565b6000611e2260328361232a565b9150611e2d8261274b565b604082019050919050565b6000611e45602a8361232a565b9150611e508261279a565b604082019050919050565b6000611e6860298361232a565b9150611e73826127e9565b604082019050919050565b6000611e8b60298361232a565b9150611e9682612838565b604082019050919050565b6000611eae60288361232a565b9150611eb982612887565b604082019050919050565b6000611ed160218361232a565b9150611edc826128d6565b604082019050919050565b611ef0816123fb565b82525050565b611eff816123fb565b82525050565b6000602082019050611f1a6000830184611c78565b92915050565b600060a082019050611f356000830188611c78565b611f426020830187611c78565b8181036040830152611f548186611c87565b90508181036060830152611f688185611c87565b90508181036080830152611f7c8184611cf4565b90509695505050505050565b600060a082019050611f9d6000830188611c78565b611faa6020830187611c78565b611fb76040830186611ef6565b611fc46060830185611ef6565b8181036080830152611fd68184611cf4565b90509695505050505050565b60006020820190508181036000830152611ffc8184611c87565b905092915050565b6000604082019050818103600083015261201e8185611c87565b905081810360208301526120328184611c87565b90509392505050565b60006020820190506120506000830184611ce5565b92915050565b600060208201905081810360008301526120708184611d2d565b905092915050565b6000602082019050818103600083015261209181611d66565b9050919050565b600060208201905081810360008301526120b181611d89565b9050919050565b600060208201905081810360008301526120d181611dac565b9050919050565b600060208201905081810360008301526120f181611dcf565b9050919050565b6000602082019050818103600083015261211181611df2565b9050919050565b6000602082019050818103600083015261213181611e15565b9050919050565b6000602082019050818103600083015261215181611e38565b9050919050565b6000602082019050818103600083015261217181611e5b565b9050919050565b6000602082019050818103600083015261219181611e7e565b9050919050565b600060208201905081810360008301526121b181611ea1565b9050919050565b600060208201905081810360008301526121d181611ec4565b9050919050565b60006020820190506121ed6000830184611ef6565b92915050565b60006040820190506122086000830185611ef6565b6122156020830184611ef6565b9392505050565b6000612226612237565b90506122328282612479565b919050565b6000604051905090565b600067ffffffffffffffff82111561225c5761225b612551565b5b602082029050602081019050919050565b600067ffffffffffffffff82111561228857612287612551565b5b602082029050602081019050919050565b600067ffffffffffffffff8211156122b4576122b3612551565b5b6122bd826125a2565b9050602081019050919050565b6000819050602082019050919050565b600081519050919050565b600081519050919050565b600081519050919050565b6000602082019050919050565b600082825260208201905092915050565b600082825260208201905092915050565b600082825260208201905092915050565b6000612346826123fb565b9150612351836123fb565b9250827fffffffffffffffffffffffffffffffffffffffffffffffffffffffffffffffff03821115612386576123856124f3565b5b828201905092915050565b600061239c826123db565b9050919050565b60008115159050919050565b60007fffffffff0000000000000000000000000000000000000000000000000000000082169050919050565b600073ffffffffffffffffffffffffffffffffffffffff82169050919050565b6000819050919050565b82818337600083830152505050565b60005b83811015612432578082015181840152602081019050612417565b83811115612441576000848401525b50505050565b6000600282049050600182168061245f57607f821691505b6020821081141561247357612472612522565b5b50919050565b612482826125a2565b810181811067ffffffffffffffff821117156124a1576124a0612551565b5b80604052505050565b60006124b5826123fb565b91507fffffffffffffffffffffffffffffffffffffffffffffffffffffffffffffffff8214156124e8576124e76124f3565b5b600182019050919050565b7f4e487b7100000000000000000000000000000000000000000000000000000000600052601160045260246000fd5b7f4e487b7100000000000000000000000000000000000000000000000000000000600052602260045260246000fd5b7f4e487b7100000000000000000000000000000000000000000000000000000000600052604160045260246000fd5b600060033d111561259f5760046000803e61259c6000516125b3565b90505b90565b6000601f19601f8301169050919050565b60008160e01c9050919050565b7f455243313135353a207472616e7366657220746f206e6f6e204552433131353560008201527f526563656976657220696d706c656d656e746572000000000000000000000000602082015250565b7f455243313135353a204552433131353552656365697665722072656a6563746560008201527f6420746f6b656e73000000000000000000000000000000000000000000000000602082015250565b7f455243313135353a2062616c616e636520717565727920666f7220746865207a60008201527f65726f2061646472657373000000000000000000000000000000000000000000602082015250565b7f455243313135353a2063616c6c6572206973206e6f74206f776e6572206e6f7260008201527f20617070726f7665640000000000000000000000000000000000000000000000602082015250565b7f455243313135353a207472616e7366657220746f20746865207a65726f20616460008201527f6472657373000000000000000000000000000000000000000000000000000000602082015250565b7f455243313135353a207472616e736665722063616c6c6572206973206e6f742060008201527f6f776e6572206e6f7220617070726f7665640000000000000000000000000000602082015250565b7f455243313135353a20696e73756666696369656e742062616c616e636520666f60008201527f72207472616e7366657200000000000000000000000000000000000000000000602082015250565b7f455243313135353a2073657474696e6720617070726f76616c2073746174757360008201527f20666f722073656c660000000000000000000000000000000000000000000000602082015250565b7f455243313135353a206163636f756e747320616e6420696473206c656e67746860008201527f206d69736d617463680000000000000000000000000000000000000000000000602082015250565b7f455243313135353a2069647320616e6420616d6f756e7473206c656e6774682060008201527f6d69736d61746368000000000000000000000000000000000000000000000000602082015250565b7f455243313135353a206d696e7420746f20746865207a65726f2061646472657360008201527f7300000000000000000000000000000000000000000000000000000000000000602082015250565b600060443d1015612935576129b8565b61293d612237565b60043d036004823e80513d602482011167ffffffffffffffff821117156129655750506129b8565b808201805167ffffffffffffffff81111561298357505050506129b8565b80602083010160043d0385018111156129a05750505050506129b8565b6129af82602001850186612479565b82955050505050505b90565b6129c481612391565b81146129cf57600080fd5b50565b6129db816123a3565b81146129e657600080fd5b50565b6129f2816123af565b81146129fd57600080fd5b50565b612a09816123fb565b8114612a1457600080fd5b5056fea264697066735822122034deb48807d1522d5d1f59eb46356f0d0c47b7788159e7f9c2416e666fb1994564736f6c6343000801003368747470733a2f2f70656163682e6275696c646572732f6170692f63726561746f722f7b69647d2e6a736f6e",
  "linkReferences": {},
  "deployedLinkReferences": {}
}