{
  "_format": "hh-sol-artifact-1",
  "contractName": "Registry",
  "sourceName": "contracts/Registry.sol",
  "abi": [
    {
      "anonymous": false,
      "inputs": [
        {
          "indexed": true,
          "internalType": "address",
          "name": "follower",
          "type": "address"
        },
        {
          "indexed": true,
          "internalType": "address",
          "name": "toFollow",
          "type": "address"
        },
        {
          "indexed": true,
          "internalType": "address",
          "name": "poster",
          "type": "address"
        }
      ],
      "name": "Follow",
      "type": "event"
    },
    {
      "anonymous": false,
      "inputs": [
        {
          "indexed": true,
          "internalType": "address",
          "name": "liker",
          "type": "address"
        },
        {
          "indexed": true,
          "internalType": "address",
          "name": "creator",
          "type": "address"
        },
        {
          "indexed": false,
          "internalType": "uint256",
          "name": "postIndex",
          "type": "uint256"
        },
        {
          "indexed": true,
          "internalType": "address",
          "name": "poster",
          "type": "address"
        }
      ],
      "name": "Like",
      "type": "event"
    },
    {
      "anonymous": false,
      "inputs": [
        {
          "indexed": true,
          "internalType": "address",
          "name": "creator",
          "type": "address"
        },
        {
          "indexed": false,
          "internalType": "uint256",
          "name": "postIndex",
          "type": "uint256"
        },
        {
          "indexed": true,
          "internalType": "address",
          "name": "poster",
          "type": "address"
        }
      ],
      "name": "Post",
      "type": "event"
    },
    {
      "anonymous": false,
      "inputs": [
        {
          "indexed": true,
          "internalType": "address",
          "name": "user",
          "type": "address"
        },
        {
          "indexed": true,
          "internalType": "string",
          "name": "username",
          "type": "string"
        },
        {
          "indexed": true,
          "internalType": "address",
          "name": "poster",
          "type": "address"
        }
      ],
      "name": "Register",
      "type": "event"
    },
    {
      "inputs": [
        {
          "internalType": "string",
          "name": "url",
          "type": "string"
        },
        {
          "internalType": "address",
          "name": "creator",
          "type": "address"
        },
        {
          "internalType": "address[]",
          "name": "likes",
          "type": "address[]"
        }
      ],
      "name": "createPost",
      "outputs": [],
      "stateMutability": "nonpayable",
      "type": "function"
    },
    {
      "inputs": [
        {
          "internalType": "address",
          "name": "follower",
          "type": "address"
        },
        {
          "internalType": "address",
          "name": "toFollow",
          "type": "address"
        }
      ],
      "name": "follow",
      "outputs": [],
      "stateMutability": "nonpayable",
      "type": "function"
    },
    {
      "inputs": [
        {
          "internalType": "address",
          "name": "liker",
          "type": "address"
        },
        {
          "internalType": "address",
          "name": "creator",
          "type": "address"
        },
        {
          "internalType": "uint256",
          "name": "postIndex",
          "type": "uint256"
        }
      ],
      "name": "likePost",
      "outputs": [],
      "stateMutability": "nonpayable",
      "type": "function"
    },
    {
      "inputs": [
        {
          "internalType": "address",
          "name": "",
          "type": "address"
        },
        {
          "internalType": "uint256",
          "name": "",
          "type": "uint256"
        }
      ],
      "name": "posts",
      "outputs": [
        {
          "internalType": "string",
          "name": "url",
          "type": "string"
        },
        {
          "internalType": "address",
          "name": "owner",
          "type": "address"
        }
      ],
      "stateMutability": "view",
      "type": "function"
    },
    {
      "inputs": [
        {
          "internalType": "address",
          "name": "user",
          "type": "address"
        },
        {
          "internalType": "string",
          "name": "username",
          "type": "string"
        }
      ],
      "name": "register",
      "outputs": [],
      "stateMutability": "nonpayable",
      "type": "function"
    },
    {
      "inputs": [
        {
          "internalType": "address",
          "name": "creator",
          "type": "address"
        }
      ],
      "name": "viewPosts",
      "outputs": [
        {
          "components": [
            {
              "internalType": "string",
              "name": "url",
              "type": "string"
            },
            {
              "internalType": "address",
              "name": "owner",
              "type": "address"
            },
            {
              "internalType": "address[]",
              "name": "likedBy",
              "type": "address[]"
            }
          ],
          "internalType": "struct Registry.post[]",
          "name": "",
          "type": "tuple[]"
        }
      ],
      "stateMutability": "view",
      "type": "function"
    }
  ],
  "bytecode": "0x608060405234801561001057600080fd5b506111d4806100206000396000f3fe608060405234801561001057600080fd5b50600436106100625760003560e01c806332434a2e1461006757806354b41925146100835780635c538df31461009f5780637af9139c146100d0578063882bf6221461010057806399d147c21461011c575b600080fd5b610081600480360381019061007c9190610b61565b610138565b005b61009d60048036038101906100989190610bf1565b6101ac565b005b6100b960048036038101906100b49190610bb5565b61037e565b6040516100c7929190610ecf565b60405180910390f35b6100ea60048036038101906100e59190610aad565b610467565b6040516100f79190610ead565b60405180910390f35b61011a60048036038101906101159190610b12565b61067a565b005b61013660048036038101906101319190610ad6565b6107e3565b005b3373ffffffffffffffffffffffffffffffffffffffff168160405161015d9190610e96565b60405180910390208373ffffffffffffffffffffffffffffffffffffffff167f512f28962293693883ab7a58ae504738bf8f6950b55447f94a7e2a079a01c49460405160405180910390a45050565b600060405180606001604052808581526020018473ffffffffffffffffffffffffffffffffffffffff16815260200183815250905060008060008573ffffffffffffffffffffffffffffffffffffffff1673ffffffffffffffffffffffffffffffffffffffff1681526020019081526020016000208054905090506000808573ffffffffffffffffffffffffffffffffffffffff1673ffffffffffffffffffffffffffffffffffffffff16815260200190815260200160002082908060018154018082558091505060019003906000526020600020906003020160009091909190915060008201518160000190805190602001906102ab929190610858565b5060208201518160010160006101000a81548173ffffffffffffffffffffffffffffffffffffffff021916908373ffffffffffffffffffffffffffffffffffffffff160217905550604082015181600201908051906020019061030f9291906108de565b5050503373ffffffffffffffffffffffffffffffffffffffff168473ffffffffffffffffffffffffffffffffffffffff167fe84c1fa13d0ebe2fdd8c64e958daf31e4e9bf011fb55848ea7c8b4f14293621d8360405161036f9190610eff565b60405180910390a35050505050565b6000602052816000526040600020818154811061039a57600080fd5b9060005260206000209060030201600091509150508060000180546103be906110cf565b80601f01602080910402602001604051908101604052809291908181526020018280546103ea906110cf565b80156104375780601f1061040c57610100808354040283529160200191610437565b820191906000526020600020905b81548152906001019060200180831161041a57829003601f168201915b5050505050908060010160009054906101000a900473ffffffffffffffffffffffffffffffffffffffff16905082565b60606000808373ffffffffffffffffffffffffffffffffffffffff1673ffffffffffffffffffffffffffffffffffffffff168152602001908152602001600020805480602002602001604051908101604052809291908181526020016000905b8282101561066f57838290600052602060002090600302016040518060600160405290816000820180546104fa906110cf565b80601f0160208091040260200160405190810160405280929190818152602001828054610526906110cf565b80156105735780601f1061054857610100808354040283529160200191610573565b820191906000526020600020905b81548152906001019060200180831161055657829003601f168201915b505050505081526020016001820160009054906101000a900473ffffffffffffffffffffffffffffffffffffffff1673ffffffffffffffffffffffffffffffffffffffff1673ffffffffffffffffffffffffffffffffffffffff1681526020016002820180548060200260200160405190810160405280929190818152602001828054801561065757602002820191906000526020600020905b8160009054906101000a900473ffffffffffffffffffffffffffffffffffffffff1673ffffffffffffffffffffffffffffffffffffffff168152602001906001019080831161060d575b505050505081525050815260200190600101906104c7565b505050509050919050565b6000808373ffffffffffffffffffffffffffffffffffffffff1673ffffffffffffffffffffffffffffffffffffffff16815260200190815260200160002081815481106106f0577f4e487b7100000000000000000000000000000000000000000000000000000000600052603260045260246000fd5b9060005260206000209060030201600201839080600181540180825580915050600190039060005260206000200160009091909190916101000a81548173ffffffffffffffffffffffffffffffffffffffff021916908373ffffffffffffffffffffffffffffffffffffffff1602179055503373ffffffffffffffffffffffffffffffffffffffff168273ffffffffffffffffffffffffffffffffffffffff168473ffffffffffffffffffffffffffffffffffffffff167faa2ce2cb33fe807472685c1e78b8c7d04c781a808891f536e7078f713b606012846040516107d69190610eff565b60405180910390a4505050565b3373ffffffffffffffffffffffffffffffffffffffff168173ffffffffffffffffffffffffffffffffffffffff168373ffffffffffffffffffffffffffffffffffffffff167fab0593080333635d8643b7029091e23800fd41ad633feb50250d233e8051d35860405160405180910390a45050565b828054610864906110cf565b90600052602060002090601f01602090048101928261088657600085556108cd565b82601f1061089f57805160ff19168380011785556108cd565b828001600101855582156108cd579182015b828111156108cc5782518255916020019190600101906108b1565b5b5090506108da9190610968565b5090565b828054828255906000526020600020908101928215610957579160200282015b828111156109565782518260006101000a81548173ffffffffffffffffffffffffffffffffffffffff021916908373ffffffffffffffffffffffffffffffffffffffff160217905550916020019190600101906108fe565b5b5090506109649190610968565b5090565b5b80821115610981576000816000905550600101610969565b5090565b600061099861099384610f4b565b610f1a565b905080838252602082019050828560208602820111156109b757600080fd5b60005b858110156109e757816109cd8882610a2f565b8452602084019350602083019250506001810190506109ba565b5050509392505050565b6000610a046109ff84610f77565b610f1a565b905082815260208101848484011115610a1c57600080fd5b610a2784828561108d565b509392505050565b600081359050610a3e81611170565b92915050565b600082601f830112610a5557600080fd5b8135610a65848260208601610985565b91505092915050565b600082601f830112610a7f57600080fd5b8135610a8f8482602086016109f1565b91505092915050565b600081359050610aa781611187565b92915050565b600060208284031215610abf57600080fd5b6000610acd84828501610a2f565b91505092915050565b60008060408385031215610ae957600080fd5b6000610af785828601610a2f565b9250506020610b0885828601610a2f565b9150509250929050565b600080600060608486031215610b2757600080fd5b6000610b3586828701610a2f565b9350506020610b4686828701610a2f565b9250506040610b5786828701610a98565b9150509250925092565b60008060408385031215610b7457600080fd5b6000610b8285828601610a2f565b925050602083013567ffffffffffffffff811115610b9f57600080fd5b610bab85828601610a6e565b9150509250929050565b60008060408385031215610bc857600080fd5b6000610bd685828601610a2f565b9250506020610be785828601610a98565b9150509250929050565b600080600060608486031215610c0657600080fd5b600084013567ffffffffffffffff811115610c2057600080fd5b610c2c86828701610a6e565b9350506020610c3d86828701610a2f565b925050604084013567ffffffffffffffff811115610c5a57600080fd5b610c6686828701610a44565b9150509250925092565b6000610c7c8383610c9c565b60208301905092915050565b6000610c948383610e30565b905092915050565b610ca581611051565b82525050565b610cb481611051565b82525050565b6000610cc582610fc7565b610ccf8185611002565b9350610cda83610fa7565b8060005b83811015610d0b578151610cf28882610c70565b9750610cfd83610fe8565b925050600181019050610cde565b5085935050505092915050565b6000610d2382610fd2565b610d2d8185611013565b935083602082028501610d3f85610fb7565b8060005b85811015610d7b5784840389528151610d5c8582610c88565b9450610d6783610ff5565b925060208a01995050600181019050610d43565b50829750879550505050505092915050565b6000610d9882610fdd565b610da28185611024565b9350610db281856020860161109c565b610dbb8161115f565b840191505092915050565b6000610dd182610fdd565b610ddb8185611035565b9350610deb81856020860161109c565b610df48161115f565b840191505092915050565b6000610e0a82610fdd565b610e148185611046565b9350610e2481856020860161109c565b80840191505092915050565b60006060830160008301518482036000860152610e4d8282610d8d565b9150506020830151610e626020860182610c9c565b5060408301518482036040860152610e7a8282610cba565b9150508091505092915050565b610e9081611083565b82525050565b6000610ea28284610dff565b915081905092915050565b60006020820190508181036000830152610ec78184610d18565b905092915050565b60006040820190508181036000830152610ee98185610dc6565b9050610ef86020830184610cab565b9392505050565b6000602082019050610f146000830184610e87565b92915050565b6000604051905081810181811067ffffffffffffffff82111715610f4157610f40611130565b5b8060405250919050565b600067ffffffffffffffff821115610f6657610f65611130565b5b602082029050602081019050919050565b600067ffffffffffffffff821115610f9257610f91611130565b5b601f19601f8301169050602081019050919050565b6000819050602082019050919050565b6000819050602082019050919050565b600081519050919050565b600081519050919050565b600081519050919050565b6000602082019050919050565b6000602082019050919050565b600082825260208201905092915050565b600082825260208201905092915050565b600082825260208201905092915050565b600082825260208201905092915050565b600081905092915050565b600061105c82611063565b9050919050565b600073ffffffffffffffffffffffffffffffffffffffff82169050919050565b6000819050919050565b82818337600083830152505050565b60005b838110156110ba57808201518184015260208101905061109f565b838111156110c9576000848401525b50505050565b600060028204905060018216806110e757607f821691505b602082108114156110fb576110fa611101565b5b50919050565b7f4e487b7100000000000000000000000000000000000000000000000000000000600052602260045260246000fd5b7f4e487b7100000000000000000000000000000000000000000000000000000000600052604160045260246000fd5b6000601f19601f8301169050919050565b61117981611051565b811461118457600080fd5b50565b61119081611083565b811461119b57600080fd5b5056fea26469706673582212208f28945ef6edbb2588b39cb98139e68f984309b03364dbe8a0126b1ab3dd46dd64736f6c63430008000033",
  "linkReferences": {},
  "deployedLinkReferences": {}
}